:100000000C946C000C9489000C9489000C94890069
:100010000C9489000C9489000C9489000C9489003C
:100020000C9489000C9489000C9489000C9484042D
:100030000C9489000C9489000C9489000C9489001C
:100040000C945F040C9489000C9489000C94890032
:100050000C9489000C9489000C9489000C948900FC
:100060000C9489000C9489000E11111111110E00CD
:100070000406050404041F000E11100804021F00EA
:100080001F08040810110E00080C0A091F080800B8
:100090001F010F1010110E000C02010F11110E00A4
:1000A0001F110804020202000E11110E11110E00A0
:1000B0000E11111E100806000004000000040000CC
:1000C0000004000004040000000404000404000014
:1000D000000404000004000011241FBECFEFD4E090
:1000E000DEBFCDBF11E0A0E0B1E0EEE3FEE002C074
:1000F00005900D92A030B107D9F711E0A0E0B1E072
:1001000001C01D92A834B107E1F70E94C2030C940C
:100110001D070C940000FC0181818F5F81838C336B
:1001200021F4118280818F5F80838081883109F47E
:1001300010820895EF92FF920F931F93CF93DF9356
:100140008C017B01D42FC0E0C8010E948B00CF5FDF
:10015000DC17D0F781E0F8012081F70190812913A5
:1001600080E0DF91CF911F910F91FF90EF90089564
:10017000FF920F931F93CF93DF9300D0CDB7DEB7DD
:100180009A83898300E010E0FF24C801880F991F3B
:100190008A5F9E4FBE016F5F7F4F402F0E949A0083
:1001A000F80E0F5F1F4F0430110579F78091080199
:1001B00090910901909307018093060190930B01A0
:1001C00080930A0189819A8190930D0180930C019B
:1001D00081E092E09F1508F080E00F900F90DF9192
:1001E000CF911F910F91FF900895282F6B3109F443
:1001F0006CC06C3198F46731E1F1683140F46531DD
:1002000061F1663170F5643109F0B9C020C069311F
:1002100009F442C06A3108F04BC034C06F3109F4B0
:1002200078C0603238F46D3109F467C06E3108F07F
:1002300068C059C0613209F47FC0613208F472C0ED
:10024000623209F485C0633209F099C08EC081E042
:10025000213009F095C080E0089580933F0180E04F
:100260000895220F80913F01282B20933F0180E0C9
:100270000895220F220F80913F01282B20933F01E8
:1002800080E00895220F220F220F80913F01282B3A
:1002900020933F0180E00895220F822F880F880F5E
:1002A000280F80913F01280F20933F0180E008959F
:1002B000220F220F822F880F880F280F80913F0175
:1002C000280F20933F0180E00895220F220F220F74
:1002D000822F880F880F280F80913F01280F2093CD
:1002E0003F0180E0089580913F0130E0280F311DEB
:1002F00081E020FF45C080E0089580933E0180E0CA
:100300000895220F80913E01282B20933E0180E02A
:100310000895220F220F80913E01282B20933E0149
:1003200080E00895220F220F220F80913E01282B9A
:1003300020933E0180E00895220F822F880F880FBE
:10034000280F80913E01280F20933E0180E0089500
:10035000220F220F822F880F880F280F80913E01D5
:10036000280F20933E0180E0089580913E0130E007
:10037000280F311D81E020FF03C080E0089580E058
:10038000089580913D01982F9850963040F480E078
:10039000609142010E94F5008093000116C0982FE1
:1003A0009251963040F481E0609142010E94F50044
:1003B000809300010AC0882341F080914201855159
:1003C0008F3018F481E080930001809142018F5FAB
:1003D00080934201909143019D3508F45DC08B33B9
:1003E00060F4833008F458C08091450180618B7BB4
:1003F00080934501109242014FC0809100018823F3
:1004000041F0809145018460809345011092000184
:1004100005C0809145018B7F809345011092420178
:100420008091450180618093450190913E01993111
:1004300020F490913F019C3338F084608093450113
:1004400010923E0110923F018091450182FD0CC047
:1004500090913E019093460190913F019093470106
:100460008F7B8093450118C08F7E809345018091DA
:100470004601882369F480914701882349F48091DB
:100480003E018093460180913F018093470104C063
:1004900086E491E00E948B0010923D01109243018E
:1004A000089584B1886284B981E58CBD08958EBDBC
:1004B0000DB407FEFDCF08950F931F93CF93DF93E5
:1004C00080910101893011F410920101C4E0D0E063
:1004D00000E111E080910101FE01EE0FFF1FEE0F20
:1004E000FF1FEE0FFF1FEC0FFD1FE80FF11DE00FC8
:1004F000F11F80810E94570221978FEFCF3FD807CD
:1005000049F71BB8289A28982091010181E090E0D2
:10051000022E02C0880F991F0A94E2F78BB92F5F51
:1005200020930101DF91CF911F910F9108950F93B7
:100530001F93CF93DF93EC0124E030E00AE010E05A
:1005400049E011C094919D93815031968823D1F751
:10055000CE01B8010E940907EB01215030408FEF16
:100560002F3F3807D1F0CE01B8010E940907FC01E6
:10057000EE0FFF1FEE0FFF1FEE0FFF1FE859FF4F9B
:10058000D901AA0FBB1FAA0FBB1FAA0FBB1FA20F27
:10059000B31FA05FBE4F842FD5CFDF91CF911F91A6
:1005A0000F9108952F923F924F925F926F927F9298
:1005B0008F929F92AF92BF92CF92DF92EF92FF9273
:1005C0000F931F93CF93DF9300D000D0CDB7DEB74A
:1005D000562F4AE0642F0E94FD06682E7724660C91
:1005E000771C660C771C660C771CA92EBB24AA0C02
:1005F000BB1CAA0CBB1CAA0CBB1C2091450130E003
:100600000F2EF4E14F2E5524F02D42225322D90112
:10061000A470B070BA83A98322243324689424F888
:1006200022223322852F0E94FD06292F90E04C01C3
:10063000880C991C880C991C880C991C822F90E0BE
:100640006C01CC0CDD1CCC0CDD1CCC0CDD1C40E1A9
:1006500051E0BA01675F7F4FFA0172968A01055E29
:100660001F4F0F2EF4E2EF2EFF24F02DE40EF51EA7
:1006700020E030E088E690E0680E791EA80EB91EF2
:10068000880E991EC80ED91EFC83EB83F301E20F7E
:10069000F31FE491DA01ED93AD01F501E20FF31FD1
:1006A000E4918E2F880FDB018D93BD018E2F8295F3
:1006B0008F70AB81BC818C93E4E14E16510449F4F8
:1006C000E8ECF0E0E20FF31FE4918E2BFD01808354
:1006D00022C02114310461F0E981FA813097A1F43C
:1006E000E0ECF0E0E20FF31FE491E82BEC9313C091
:1006F000E981FA81309741F0E0EDF0E0E20FF31F7D
:10070000E491E82BEC9307C0E8EBF0E0E20FF31F75
:10071000E491E82BEC93F401E20FF31FE4919E2F98
:100720009295907F8C91892B8C93E695D801ED93CF
:100730008D01F601E20FF31FE491D701ED937D01E6
:100740002F5F3F4F8B819C8101969C838B83293047
:10075000310509F09BCF0F900F900F900F90DF9114
:10076000CF911F910F91FF90EF90DF90CF90BF90AE
:10077000AF909F908F907F906F905F904F903F9041
:100780002F90089586E087B98FEF8AB984B989E3FD
:1007900088B91BB815B88CEF86BD82E084BD81E0B6
:1007A00085BDE0E8F0E080818083E1E8F0E08081D1
:1007B0008A60808387EA91E690938900809388001D
:1007C000EFE6F0E080818260808378942A980E942E
:1007D000510280E090E00E949702FF24C0E0D0E048
:1007E00000E010E00F2EF5E0EF2EF02D0F2EF3E0DD
:1007F000AF2EBB24F02D0F2EF9E18F2EF1E09F2EAE
:10080000F02DCC24DD2477248091450181FF05C0A3
:100810008D7F809345010E945C028091450183FF9A
:1008200003C0877F809345018091450186FF37C0D3
:100830002FE0C03AD20789F58F2D6E2D0E94FD065C
:100840002A2D01C0220F9A95EAF7922F9401A60152
:1008500010C0841711F4908301C0108231962E17B6
:100860003F07B9F74F5F5F4F275F3F4F4630510556
:1008700061F0FA01EE0FFF1FEE0FFF1FEE0FFF1FDB
:10088000E40FF51FE05FFE4FE4CFF39489E1F81623
:1008900011F0E60102C0F72CE601219604C08CE0BD
:1008A00062E20E94D2020431110531F480914501C7
:1008B00082608093450186010F5F1F4FA5CF1F9275
:1008C0000F920FB60F9211242F933F934F935F9384
:1008D0006F937F938F939F93AF93BF93EF93FF9308
:1008E0000E945C022A9AFF91EF91BF91AF919F9174
:1008F0008F917F916F915F914F913F912F910F90C9
:100900000FBE0F901F9018951F920F920FB60F9267
:1009100011242F938F939F93339B07C080913D01A8
:100920008F5F80933D012A9A05C0809143018F5FBC
:100930008093430120913D018091430190E0820F1B
:10094000911D833691052CF080914501886080933C
:10095000450180910201909103010196909303015A
:10096000809302018436910549F4809145018160AC
:100970008093450110920301109202019F918F9183
:100980002F910F900FBE0F901F901895CF930E943C
:100990002D058CEC0E94520584E40E9452050E94B1
:1009A000AA058823E1F30E942D058CEC0E945205D4
:1009B0008EEB0E9452050E94AA05C82F0E94AA052C
:1009C000382F20E06C2F70E0262B372BB9018827B9
:1009D00077FD8095982F0E940E0620E030E040E8D9
:1009E0005DE30E944906462F572F682F792FCB01D0
:1009F000BA01CF91089586B181700895409A389ACE
:100A00000895CF93DF93C82FDFB7F8944098389AB2
:100A10008DE08A95F1F70000CC2311F03898409AC8
:100A200096E59A95F1F700C0309BC0E086ED90E026
:100A30000197F1F700C00000409A3898662311F042
:100A40000E94FE04DFBF92E49A95F1F700C08C2F5C
:100A5000DF91CF910895389808954098389A8FE59E
:100A600099E00197F1F700C000009FB7F89438981B
:100A7000409AEFE3F1E03197F1F700C0000086B152
:100A80009FBFEFE1F8E03197F1F700C00000309B25
:100A900002C08170089581E00895817060E00E9435
:100AA00001050895CF93DF93C82FD8E08C2F817074
:100AB0000E944D05C6958111C068D150B9F78C2FA1
:100AC000DF91CF910895CF93DF93C82FD8E0D13035
:100AD00031F08C2F817060E00E94010505C08C2FE1
:100AE000817061E00E940105C6958111C068D150F6
:100AF00071F78C2FDF91CF910895EF92FF920F93B2
:100B00001F93CF93DF93E82EEB01F42E0E942D0567
:100B1000209769F085E50E9452058E01085F1F4FFE
:100B200089910E945205C017D107D1F703C08CEC00
:100B30000E945205FF2021F08E2D0E94630503C004
:100B40008E2D0E945205DF91CF911F910F91FF9042
:100B5000EF9008958FEF0E9452050895DF92EF9273
:100B6000FF920F931F93CF93DF93D82EEB010E9438
:100B70002D05882361F580EF0E945205EE2410E4D4
:100B80000F2EF8EFFF2EF02DF10E81E00E944D05A3
:100B9000082F81E00E944D05882319F0002351F0B1
:100BA00019C0002349F51D1510F1888180FF02C08E
:100BB000D11601F5802F0E944D0588818695888386
:100BC00011501F1511F721961123D1F607C0EE24FD
:100BD000EA9404C00F2EFEEFEF2EF02D8E2DDF9144
:100BE000CF911F910F91FF90EF90DF900895E12E2C
:100BF00001E002C0E12E01E0802F0E944D058881B6
:100C0000869580688883DCCF40E00E947D0508954A
:100C100041E00E947D050895E89409C097FB3EF4E9
:100C200090958095709561957F4F8F4F9F4F992339
:100C3000A9F0F92F96E9BB279395F69587957795B7
:100C40006795B795F111F8CFFAF4BB0F11F460FF77
:100C50001BC06F5F7F4F8F4F9F4F16C0882311F0CF
:100C600096E911C0772321F09EE8872F762F05C0E3
:100C7000662371F096E8862F70E060E02AF09A957E
:100C8000660F771F881FDAF7880F9695879597F973
:100C900008950BD078C069D028F06ED018F0952355
:100CA00009F05AC05FC01124A2C07ED0A0F3959F66
:100CB000D1F3950F50E0551F629FF001729FBB2743
:100CC000F00DB11D639FAA27F00DB11DAA1F649FEF
:100CD0006627B00DA11D661F829F2227B00DA11DA2
:100CE000621F739FB00DA11D621F839FA00D611D28
:100CF000221F749F3327A00D611D231F849F600D49
:100D0000211D822F762F6A2F11249F5750408AF081
:100D1000E1F088234AF0EE0FFF1FBB1F661F771F0D
:100D2000881F91505040A9F79E3F510570F014C0A4
:100D30005EC05F3FECF3983EDCF386957795679550
:100D4000B795F795E7959F5FC1F7FE2B880F911D2B
:100D50009695879597F9089597F99F6780E870E0D1
:100D600060E008959FEF80EC089500240A94161621
:100D7000170618060906089500240A941216130689
:100D8000140605060895092E0394000C11F4882317
:100D900052F0BB0F40F4BF2B11F460FF04C06F5F33
:100DA0007F4F8F4F9F4F089557FD9058440F551F09
:100DB00059F05F3F71F04795880F97FB991F61F0DD
:100DC0009F3F79F087950895121613061406551F54
:100DD000F2CF4695F1DF08C0161617061806991FC0
:100DE000F1CF86957105610508940895E894BB27B5
:100DF00066277727CB0197F90895991B79E004C0FE
:100E0000991F961708F0961B881F7A95C9F7809549
:100E10000895AA1BBB1B51E107C0AA1FBB1FA61741
:100E2000B70710F0A61BB70B881F991F5A95A9F793
:0E0E300080959095BC01CD010895F894FFCFF8
:00000001FF
